:020000040000FA
:100000000C94D4000C94FC000C94FC000C94FC00A8
:100010000C94FC000C94FC000C94FC000C94FC0070
:100020000C94FC000C942F030C94FC000C94FC002A
:100030000C94FC000C94FC000C94FC000C94FC0050
:100040000C948D020C94FC000C94FD020C94D702CD
:100050000C94FC000C94FC000C94FC000C94FC0030
:100060000C94FC000C94FC007F8285888B8F929509
:10007000989B9EA1A4A7AAADB0B2B5B8BBBEC0C3A1
:10008000C6C8CBCDD0020AD4D7D9DBDDDFE1E3E5AA
:10009000E7E9EAECEEEFF0F2F3F4F5F7F8F9F9FA44
:1000A000FBFCFC1903FDFDFEFEFEFEFEFEFEFDFD5B
:1000B000FDFCFCFBFAF9F9F8F7F5F4F3F2F0EFEEDA
:1000C000ECEAE9E7E5E3E1DFDDDBD9D7D4D2D0CD57
:1000D000CBC8C6C3C0BEBBB8B5B2B0ADAAA7A4A1B9
:1000E0009E9B9895928F8B8885827F7C7976736FA3
:1000F0006C696663605D5A5754514E4C49464340A3
:100100003E3B383633312E2C2A272523211F1D1B39
:100110001917151412100F0E0C0B0A090706050506
:1001200004030202010101000000000000000101BF
:10013000010202030405050607090A0B0C0E0F1045
:1001400012141517191B1D1F212325272A2C2E31A8
:100150003336383B3E404346494C4E5154575A5D26
:10016000606366696C6F7376797C0000000025001F
:1001700028002B0000000000240027002A000404AF
:10018000040404040404020202020202030303033F
:10019000030301020408102040800102040810201B
:1001A000010204081020CF0511241FBECFEFD8E0B4
:1001B000DEBFCDBF11E0A0E0B1E0EEE2F1E102C0B0
:1001C00005900D92AA32B107D9F721E0AAE2B1E079
:1001D00001C01D92AF3DB207E1F710E0C4EDD0E0E1
:1001E00004C02197FE010E948F08C33DD107C9F7C3
:1001F0000E94A8030C9495080C940000AF92BF9243
:10020000CF92DF92EF92FF920F931F93CF93DF93E2
:100210006C017B018B01040F151FEB015E01AE1811
:10022000BF08C017D10759F06991D601ED91FC9133
:100230000190F081E02DC6010995892B79F7C50160
:10024000DF91CF911F910F91FF90EF90DF90CF90B2
:10025000BF90AF900895FC01538D448D252F30E061
:10026000842F90E0821B930B541710F0CF960895C3
:1002700001970895FC01918D828D981761F0A28DF0
:10028000AE0FBF2FB11D5D968C91928D9F5F9F73B6
:10029000928F90E008958FEF9FEF0895FC01918D6C
:1002A000828D981731F0828DE80FF11D858D90E0D9
:1002B00008958FEF9FEF0895FC01918D228D892F76
:1002C00090E0805C9F4F821B91098F73992708955E
:1002D00082E491E00E945C0121E0892B09F420E096
:1002E000822F089580E090E0892B29F00E94680118
:1002F00081110C9400000895FC01A48DA80FB92F62
:10030000B11DA35ABF4F2C91848D90E001968F733D
:100310009927848FA689B7892C93A089B1898C915C
:10032000837080648C93938D848D981306C00288AB
:10033000F389E02D80818F7D80830895EF92FF9275
:100340000F931F93CF93DF93EC0181E0888F9B8DF8
:100350008C8D98131AC0E889F989808185FF15C0B2
:100360009FB7F894EE89FF896083E889F9898081D5
:100370008370806480839FBF81E090E0DF91CF91A4
:100380001F910F91FF90EF900895F62E0B8D10E0C6
:100390000F5F1F4F0F731127E02E8C8D8E110CC035
:1003A0000FB607FCFACFE889F989808185FFF5CF80
:1003B000CE010E947C01F1CFEB8DEC0FFD2FF11DE2
:1003C000E35AFF4FF0829FB7F8940B8FEA89FB89BD
:1003D00080818062CFCFCF93DF93EC01888D88231B
:1003E000B9F0AA89BB89E889F9898C9185FD03C098
:1003F000808186FD0DC00FB607FCF7CF8C9185FF7D
:10040000F2CF808185FFEDCFCE010E947C01E9CF44
:10041000DF91CF910895CF93DF9390E0FC01EE56EA
:10042000FE4F249182589E4FFC0184918823D1F085
:1004300090E0880F991FFC01EC58FE4FA591B491F4
:10044000FC01E659FE4FC591D49161110EC09FB7D2
:10045000F8948C91E22FE0958E238C932881E223EF
:10046000E8839FBFDF91CF9108958FB7F894EC9107
:10047000E22BEC938FBFF6CFFC0101900020E9F74F
:100480003197AF01481B590BBC0182E491E00C94F9
:10049000FE008F929F92AF92BF920F931F93CF93C4
:1004A000DF93CDB7DEB7A1970FB6F894DEBF0FBECE
:1004B000CDBF19A2423008F44AE08E010F5D1F4FF4
:1004C000842E912CB12CA12CA50194010E941B0615
:1004D000E62FB901CA01EA30F4F4E05DD801EE93E9
:1004E0008D01232B242B252B79F790E080E01097AA
:1004F00019F0CD010E943C02A1960FB6F894DEBF20
:100500000FBECDBFDF91CF911F910F91BF90AF90E4
:100510009F908F900895E95CE1CF1F920F920FB6E4
:100520000F9211242F933F938F939F93AF93BF9379
:1005300080913E0190913F01A0914001B091410115
:1005400030913D0123E0230F2D3758F50196A11D71
:10055000B11D20933D0180933E0190933F01A093F4
:100560004001B09341018091390190913A01A091ED
:100570003B01B0913C010196A11DB11D8093390151
:1005800090933A01A0933B01B0933C01BF91AF918E
:100590009F918F913F912F910F900FBE0F901F90C1
:1005A000189526E8230F0296A11DB11DD2CF1F92E8
:1005B0000F920FB60F9211242F933F934F935F9397
:1005C0006F937F938F939F93AF93BF93EF93FF931B
:1005D00082E491E00E947C01FF91EF91BF91AF9185
:1005E0009F918F917F916F915F914F913F912F914B
:1005F0000F900FBE0F901F9018951F920F920FB67D
:100600000F9211242F938F939F93EF93FF93E09179
:100610005201F09153018081E0915801F09159010C
:1006200082FD1BC0908180915B018F5F8F73209151
:100630005C01821741F0E0915B01F0E0EE5BFE4F60
:10064000958F80935B01FF91EF919F918F912F91F7
:100650000F900FBE0F901F9018958081F4CF1F92BE
:100660000F920FB60F9211244F935F936F937F9366
:100670008F939F93AF93BF93EF93FF935F9A4091B4
:1006800030015091310160913201709133018091BC
:100690002C0190912D01A0912E01B0912F01840F7A
:1006A000951FA61FB71F80932C0190932D01A09337
:1006B0002E01B0932F0180912C0190912D01A091DA
:1006C0002E01B0912F018B2F9927AA27BB2780934A
:1006D0002B01E0912B01F0E0E859FF4FE491E0930A
:1006E000B300E0912B01EB5AF0E0E859FF4FE491A1
:1006F000F0E0F0938900E0938800E0912B01E6554B
:10070000F0E0E859FF4FE491F0E0F0938B00E093C4
:100710008A0080912A0191E0980F90932A018D37E9
:1007200039F4809138018F5F8093380110922A014B
:100730005F98FF91EF91BF91AF919F918F917F91C2
:100740006F915F914F910F900FBE0F901F90189572
:10075000789484B5826084BD84B5816084BD85B59C
:10076000826085BD85B5816085BD80916E008160A8
:1007700080936E001092810080918100826080934E
:100780008100809181008160809381008091800050
:100790008160809380008091B10084608093B1007B
:1007A0008091B00081608093B00080917A00846075
:1007B00080937A0080917A00826080937A008091A1
:1007C0007A00816080937A0080917A0080688093BB
:1007D0007A001092C100E0915201F091530182E041
:1007E0008083E0914E01F0914F011082E091500121
:1007F000F091510180E1808310925A01E0915601FD
:10080000F091570186E08083E0915401F091550109
:10081000808180618083E0915401F0915501808155
:1008200088608083E0915401F09155018081806857
:100830008083E0915401F091550180818F7D808308
:1008400082E191E00E943C028BE191E00E943C0237
:1008500060E080E00E940B0261E087E00E940B02F2
:1008600061E08BE00E940B0261E08AE00E940B02D3
:1008700061E089E00E940B02809181008160809399
:100880008100809181008D7F809381008091810023
:100890008B7F80938100809180008F7B809380008C
:1008A00080918000806880938000809180008F7E9E
:1008B000809380008091800080628093800080918E
:1008C0008000816080938000809180008D7F809384
:1008D000800080918100877F8093810080918100DA
:1008E0008F7E809381008091B10081608093B10000
:1008F0008091B1008D7F8093B1008091B1008B7F9A
:100900008093B1008091B0008F7B8093B000809184
:10091000B00080688093B0008091B00081608093C7
:10092000B0008091B0008D7F8093B0008091B100C5
:10093000877F8093B10080916E008E7F80936E00E0
:100940008091700081608093700080E090E0A0E270
:10095000B1E48093340190933501A0933601B093B4
:1009600037018CE093EEA4E1B0E0809330019093E6
:100970003101A0933201B093330110E488248A94AA
:1009800083E0982EA12CB12CC0E0D0E080913801FA
:100990008B3F08F467C01092380110937C0080915F
:1009A0007A00806480937A0080917A0086FDFCCF83
:1009B00080917800A0917900BA2FA82F2CE330E025
:1009C0000E948808A50194010E94FC05CA01B90192
:1009D0000E94610760933401709335018093360162
:1009E00090933701809170008E7F8093700020E09B
:1009F00030E040E85FE4609134017091350180910E
:100A00003601909137010E94160823E331E245EF49
:100A100056E40E94BE060E94300760933001709336
:100A20003101809332019093330180917000816095
:100A300080937000C0903401D0903501E090360171
:100A4000F0903701A7019601C701B6010E94830803
:100A5000882399F08EE191E00E943C028BE191E0C5
:100A60000E943C02209709F491CF0E9468018823DC
:100A700009F48CCF0E94000089CF26013701E89449
:100A800077F82FEF3FEF4FE75FE7C301B2010E9416
:100A9000830881110DC02FEF3FEF4FE75FE7C301E0
:100AA000B2010E94B90618161CF482E291E0D4CF7C
:100AB0002FEF3FEF4FE75FE4C701B6010E94110837
:100AC00018161CF486E291E0C7CF2FEF3FEF4FE7F7
:100AD0005FECC701B6010E94B90687FDF3CF20E0A5
:100AE00030E0A901C701B6010E94B90687FF09C01D
:100AF0006DE282E491E00E949E01F7FAF094F7F82B
:100B0000F0942AE037ED43EA5BE3C701B6010E94A7
:100B10004D062B013C010E9430076B017C010E94B5
:100B20005F079B01AC01C301B2010E944C062B017F
:100B30003C014AE0C701B6010E9449026EE282E42C
:100B400091E00E949E0120E030E040E251E4C301C8
:100B5000B2010E9416082B013C010E9430076B0174
:100B6000F12CE12C4AE0C701B6010E944902C701FD
:100B7000B6010E945F079B01AC01C301B2010E9454
:100B80004C0620E030E040E251E40E9416080E944A
:100B9000300790E080E04AE00E9449025FCFE2E443
:100BA000F1E01382128288EE93E0A0E0B0E084834B
:100BB0009583A683B78384E091E09183808385EC5D
:100BC00090E09587848784EC90E09787868780EC17
:100BD00090E0918B808B81EC90E0938B828B82EC08
:100BE00090E0958B848B86EC90E0978B868B118EB2
:100BF000128E138E148E0895052E97FB1EF400940A
:100C00000E94130657FD07D00E941B0607FC03D065
:100C10004EF40C94130650954095309521953F4F16
:100C20004F4F5F4F089590958095709561957F4FD8
:100C30008F4F9F4F0895A1E21A2EAA1BBB1BFD01E7
:100C40000DC0AA1FBB1FEE1FFF1FA217B307E407AB
:100C5000F50720F0A21BB30BE40BF50B661F771F03
:100C6000881F991F1A9469F76095709580959095E3
:100C70009B01AC01BD01CF010895A29FB001B39FBC
:100C8000C001A39F700D811D1124911DB29F700D95
:100C9000811D1124911D08955058BB27AA270E9439
:100CA00064060C94D7070E94C90738F00E94D00749
:100CB00020F039F49F3F19F426F40C94C6070EF483
:100CC000E095E7FB0C94C007E92F0E94E80758F372
:100CD000BA17620773078407950720F079F4A6F521
:100CE0000C940A080EF4E0950B2EBA2FA02D0B01E0
:100CF000B90190010C01CA01A0011124FF27591B61
:100D000099F0593F50F4503E68F11A16F040A22F66
:100D1000232F342F4427585FF3CF469537952795D7
:100D2000A795F0405395C9F77EF41F16BA0B620BD6
:100D3000730B840BBAF09150A1F0FF0FBB1F661F1D
:100D4000771F881FC2F70EC0BA0F621F731F841F60
:100D500048F4879577956795B795F7959E3F08F086
:100D6000B0CF9395880F08F09927EE0F9795879548
:100D700008950E949C0708F481E008950E94D2061D
:100D80000C94D7070E94D00758F00E94C90740F082
:100D900029F45F3F29F00C94C00751110C940B0803
:100DA0000C94C6070E94E80768F39923B1F3552312
:100DB00091F3951B550BBB27AA276217730784076E
:100DC00038F09F5F5F4F220F331F441FAA1FA9F304
:100DD00035D00E2E3AF0E0E832D091505040E695F2
:100DE000001CCAF72BD0FE2F29D0660F771F881F53
:100DF000BB1F261737074807AB07B0E809F0BB0B46
:100E0000802DBF01FF2793585F4F3AF09E3F510559
:100E100078F00C94C0070C940B085F3FE4F3983E05
:100E2000D4F3869577956795B795F7959F5FC9F742
:100E3000880F911D9695879597F90895E1E0660FC3
:100E4000771F881FBB1F621773078407BA0720F03C
:100E5000621B730B840BBA0BEE1F88F7E0950895A5
:100E60000E94F00788F09F5798F0B92F9927B75143
:100E7000B0F0E1F0660F771F881F991F1AF0BA953E
:100E8000C9F714C0B13091F00E940A08B1E008958A
:100E90000C940A08672F782F8827B85F39F0B93F7C
:100EA000CCF3869577956795B395D9F73EF49095F1
:100EB0008095709561957F4F8F4F9F4F0895E8946F
:100EC00009C097FB3EF490958095709561957F4F92
:100ED0008F4F9F4F9923A9F0F92F96E9BB27939540
:100EE000F695879577956795B795F111F8CFFAF450
:100EF000BB0F11F460FF1BC06F5F7F4F8F4F9F4F81
:100F000016C0882311F096E911C0772321F09EE8DE
:100F1000872F762F05C0662371F096E8862F70E044
:100F200060E02AF09A95660F771F881FDAF7880F1E
:100F30009695879597F90895990F0008550FAA0B74
:100F4000E0E8FEEF16161706E807F907C0F01216DC
:100F50001306E407F50798F0621B730B840B950BDF
:100F600039F40A2661F0232B242B252B21F4089534
:100F70000A2609F4A140A6958FEF811D811D0895D1
:100F800097F99F6780E870E060E008959FEF80EC3C
:100F9000089500240A9416161706180609060895DF
:100FA00000240A9412161306140605060895092E45
:100FB0000394000C11F4882352F0BB0F40F4BF2BB4
:100FC00011F460FF04C06F5F7F4F8F4F9F4F0895F4
:100FD00057FD9058440F551F59F05F3F71F04795EA
:100FE000880F97FB991F61F09F3F79F087950895CF
:100FF000121613061406551FF2CF4695F1DF08C0EE
:10100000161617061806991FF1CF8695710561050A
:1010100008940895E894BB2766277727CB0197F9B2
:1010200008950E949C0708F48FEF08950E942908F4
:101030000C94D7070E94C90738F00E94D00720F00F
:10104000952311F00C94C0070C94C60711240C943E
:101050000B080E94E80770F3959FC1F3950F50E0CD
:10106000551F629FF001729FBB27F00DB11D639F5A
:10107000AA27F00DB11DAA1F649F6627B00DA11D00
:10108000661F829F2227B00DA11D621F739FB00DA6
:10109000A11D621F839FA00D611D221F749F332716
:1010A000A00D611D231F849F600D211D822F762FAF
:1010B0006A2F11249F5750409AF0F1F088234AF08C
:1010C000EE0FFF1FBB1F661F771F881F91505040F8
:1010D000A9F79E3F510580F00C94C0070C940B08B3
:1010E0005F3FE4F3983ED4F3869577956795B7957F
:1010F000F795E7959F5FC1F7FE2B880F911D969599
:10110000879597F908950E949C07880B990B08957D
:101110000E943D06B7FF0895821B930B0895EE0FC2
:10112000FF1F0590F491E02D0994F894FFCF000083
:1011300000009E01FE002B01EB015C013A014E0113
:101140004444532054657374000D0A006E616E00B0
:08115000696E66006F7666000F
:107E0000112484B714BE81FFF0D085E080938100F7
:107E100082E08093C00088E18093C10086E0809377
:107E2000C20080E18093C4008EE0C9D0259A86E02C
:107E300020E33CEF91E0309385002093840096BBD3
:107E4000B09BFECF1D9AA8958150A9F7CC24DD24C4
:107E500088248394B5E0AB2EA1E19A2EF3E0BF2EE7
:107E6000A2D0813461F49FD0082FAFD0023811F036
:107E7000013811F484E001C083E08DD089C08234E0
:107E800011F484E103C0853419F485E0A6D080C0E4
:107E9000853579F488D0E82EFF2485D0082F10E0AE
:107EA000102F00270E291F29000F111F8ED06801E7
:107EB0006FC0863521F484E090D080E0DECF843638
:107EC00009F040C070D06FD0082F6DD080E0C81688
:107ED00080E7D80618F4F601B7BEE895C0E0D1E017
:107EE00062D089930C17E1F7F0E0CF16F0E7DF06D8
:107EF00018F0F601B7BEE89568D007B600FCFDCFD4
:107F0000A601A0E0B1E02C9130E011968C91119780
:107F100090E0982F8827822B932B1296FA010C0160
:107F200087BEE89511244E5F5F4FF1E0A038BF0790
:107F300051F7F601A7BEE89507B600FCFDCF97BE46
:107F4000E89526C08437B1F42ED02DD0F82E2BD052
:107F50003CD0F601EF2C8F010F5F1F4F84911BD097
:107F6000EA94F801C1F70894C11CD11CFA94CF0C13
:107F7000D11C0EC0853739F428D08EE10CD085E9AC
:107F80000AD08FE07ACF813511F488E018D01DD067
:107F900080E101D065CF982F8091C00085FFFCCF94
:107FA0009093C60008958091C00087FFFCCF809118
:107FB000C00084FD01C0A8958091C6000895E0E648
:107FC000F0E098E1908380830895EDDF803219F02E
:107FD00088E0F5DFFFCF84E1DECF1F93182FE3DFCA
:107FE0001150E9F7F2DF1F91089580E0E8DFEE27F6
:047FF000FF270994CA
:027FFE00040479
:00000001FF
