:100000000C94D4000C94FC000C94FC000C94FC00A8
:100010000C94FC000C94FC000C94FC000C94FC0070
:100020000C94FC000C9424030C94FC000C94FC0035
:100030000C94FC000C94FC000C94FC000C94FC0050
:100040000C9482020C94FC000C94F2020C94CC02EE
:100050000C94FC000C94FC000C94FC000C94FC0030
:100060000C94FC000C94FC007F8285888B8F929509
:10007000989B9EA1A4A7AAADB0B2B5B8BBBEC0C3A1
:10008000C6C8CBCDD0020AD4D7D9DBDDDFE1E3E5AA
:10009000E7E9EAECEEEFF0F2F3F4F5F7F8F9F9FA44
:1000A000FBFCFC1903FDFDFEFEFEFEFEFEFEFDFD5B
:1000B000FDFCFCFBFAF9F9F8F7F5F4F3F2F0EFEEDA
:1000C000ECEAE9E7E5E3E1DFDDDBD9D7D4D2D0CD57
:1000D000CBC8C6C3C0BEBBB8B5B2B0ADAAA7A4A1B9
:1000E0009E9B9895928F8B8885827F7C7976736FA3
:1000F0006C696663605D5A5754514E4C49464340A3
:100100003E3B383633312E2C2A272523211F1D1B39
:100110001917151412100F0E0C0B0A090706050506
:1001200004030202010101000000000000000101BF
:10013000010202030405050607090A0B0C0E0F1045
:1001400012141517191B1D1F212325272A2C2E31A8
:100150003336383B3E404346494C4E5154575A5D26
:10016000606366696C6F7376797C0000000025001F
:1001700028002B0000000000240027002A000404AF
:10018000040404040404020202020202030303033F
:10019000030301020408102040800102040810201B
:1001A000010204081020B50511241FBECFEFD8E0CE
:1001B000DEBFCDBF11E0A0E0B1E0EAE9F0E102C0AE
:1001C00005900D92AC32B107D9F721E0ACE2B1E075
:1001D00001C01D92A13EB207E1F710E0C4EDD0E0EE
:1001E00004C02197FE010E944008C33DD107C9F712
:1001F0000E949D030C944B080C94000090E0FC01BD
:10020000EE56FE4F2491FC01E258FE4F8491882364
:1002100099F090E0880F991FFC01EC58FE4FA591D2
:10022000B491FC01E659FE4F859194918FB7F894F3
:10023000EC91E22BEC938FBF0895CF92DF92EF9277
:10024000FF920F931F93CF93DF936C017A018B0181
:10025000C0E0D0E0CE15DF0581F0D8016D918D01B1
:10026000D601ED91FC910190F081E02DC601099538
:10027000892B11F02196EECF7E01C701DF91CF913E
:100280001F910F91FF90EF90DF90CF900895089508
:1002900080E090E00895FC01538D448D252F30E0DF
:1002A000842F90E0821B930B541710F0CF96089583
:1002B00001970895FC01918D828D981761F0828DD0
:1002C000DF01A80FB11D5D968C91928D9F5F9F738A
:1002D000928F90E008958FEF9FEF0895FC01918D2C
:1002E000828D981731F0828DE80FF11D858D90E099
:1002F00008958FEF9FEF0895FC01918D228D892F36
:1003000090E0805C9F4F821B91098F73992708951D
:1003100084E491E00E947C0121E0892B09F420E033
:10032000822F0895FC01848DDF01A80FB11DA35A0F
:10033000BF4F2C91848D90E001968F739927848F05
:10034000A689B7892C93A089B1898C918370806428
:100350008C93938D848D981306C00288F389E02DC9
:1003600080818F7D80830895EF92FF920F931F937A
:10037000CF93DF93EC0181E0888F9B8D8C8D981358
:1003800005C0E889F989808185FD26C0F62E0B8D90
:1003900010E00F5F1F4F0F731127E02E8C8DE812B6
:1003A0000CC00FB607FCFACFE889F989808185FF78
:1003B000F5CFCE010E949201F1CF8B8DFE01E80FA7
:1003C000F11DE35AFF4FF0829FB7F8940B8FEA8933
:1003D000FB89808180620AC09FB7F894EE89FF890B
:1003E0006083E889F98980818370806480839FBFFE
:1003F00081E090E0DF91CF911F910F91FF90EF90FE
:100400000895CF93DF93EC01888D8823C9F0EA89A2
:10041000FB89808185FD05C0A889B9898C9186FDFD
:100420000FC00FB607FCF5CF808185FFF2CFA889FA
:10043000B9898C9185FFEDCFCE010E949201E7CF63
:10044000DF91CF91089580E090E0892B29F00E9400
:10045000880181110C9400000895009769F0FC0157
:1004600001900020E9F73197AF01481B590BBC01FF
:1004700084E491E00C941D0180E090E008958F9257
:100480009F92AF92BF920F931F93CF93DF93CDB7FD
:10049000DEB7A1970FB6F894DEBF0FBECDBF19A28D
:1004A000423008F44AE08E010F5D1F4F842E912CDC
:1004B000A12CB12CA50194010E941E08E62FB901C0
:1004C000CA0101501109EA3014F4E05D01C0E95C91
:1004D000D801EC93232B242B252B61F7C8010E9414
:1004E0002D02A1960FB6F894DEBF0FBECDBFDF91EF
:1004F000CF911F910F91BF90AF909F908F900895D3
:100500000E9446081F920F920FB60F9211242F934C
:100510003F938F939F93AF93BF93809140019091AE
:100520004101A0914201B091430130913F0123E08C
:10053000230F2D3720F40196A11DB11D05C026E81B
:10054000230F0296A11DB11D20933F01809340010E
:1005500090934101A0934201B093430180913B01EC
:1005600090913C01A0913D01B0913E010196A11DE9
:10057000B11D80933B0190933C01A0933D01B0934A
:100580003E01BF91AF919F918F913F912F910F901D
:100590000FBE0F901F9018951F920F920FB60F92DB
:1005A00011242F933F934F935F936F937F938F9378
:1005B0009F93AF93BF93EF93FF9384E491E00E94E6
:1005C0009201FF91EF91BF91AF919F918F917F9198
:1005D0006F915F914F913F912F910F900FBE0F90B0
:1005E0001F9018951F920F920FB60F9211242F9300
:1005F0008F939F93EF93FF93E0915401F0915501F6
:100600008081E0915A01F0915B0182FD12C09081DE
:1006100080915D018F5F8F7320915E01821751F091
:10062000E0915D01F0E0EC5BFE4F958F80935D0102
:1006300001C08081FF91EF919F918F912F910F9039
:100640000FBE0F901F9018951F920F920FB60F922A
:1006500011244F935F936F937F938F939F93AF93E7
:10066000BF93EF93FF935F9A409132015091330112
:10067000609134017091350180912E0190912F018C
:10068000A0913001B0913101840F951FA61FB71FB3
:1006900080932E0190932F01A0933001B0933101EC
:1006A00080912E0190912F01A0913001B0913101E4
:1006B0008B2F9927AA27BB2780932D01E0912D012D
:1006C000F0E0E859FF4FE491E093B300E0912D0191
:1006D000EB5AF0E0E859FF4FE491F0E0F093890025
:1006E000E0938800E0912D01E655F0E0E859FF4FD6
:1006F000E491F0E0F0938B00E0938A0080912C016C
:1007000091E0980F90932C018D3739F480913A0144
:100710008F5F80933A0110922C015F98FF91EF91C7
:10072000BF91AF919F918F917F916F915F914F9109
:100730000F900FBE0F901F901895789484B582602B
:1007400084BD84B5816084BD85B5826085BD85B575
:10075000816085BD80916E00816080936E001092F3
:10076000810080918100826080938100809181006E
:1007700081608093810080918000816080938000FF
:100780008091B10084608093B1008091B00081605D
:100790008093B00080917A00846080937A00809189
:1007A0007A00826080937A0080917A0081608093E1
:1007B0007A0080917A00806880937A001092C1005C
:1007C000E0915401F091550182E08083E091500165
:1007D000F09151011082E0915201F091530180E1BA
:1007E000808310925C01E0915801F091590186E0FC
:1007F0008083E0915601F091570180818061808370
:10080000E0915601F0915701808188608083E091EA
:100810005601F0915701808180688083E0915601F4
:10082000F091570180818F7D808382E191E00E9469
:100830002D028BE191E00E942D0287E00E94FE00D4
:100840008BE00E94FE008AE00E94FE0089E00E9488
:10085000FE00809181008160809381008091810001
:100860008D7F80938100809181008B7F80938100B8
:10087000809180008F7B80938000809180008068D1
:1008800080938000809180008F7E80938000809193
:1008900080008062809380008091800081608093DE
:1008A0008000809180008D7F809380008091810006
:1008B000877F80938100809181008F7E809381006B
:1008C0008091B10081608093B1008091B1008D7FF3
:1008D0008093B1008091B1008B7F8093B1008091B3
:1008E000B0008F7B8093B0008091B00080688093CF
:1008F000B0008091B00081608093B0008091B00022
:100900008D7F8093B0008091B100877F8093B1008C
:1009100080916E008E7F80936E0080917000816068
:100920008093700080E090E0AAE7B4E48093360101
:1009300090933701A0933801B093390180EC90EB8C
:10094000A8E2B8E08093320190933301A093340180
:10095000B0933501C0E480913A018B3F08F402C1A5
:1009600010923A01C0937C0080917A008064809359
:100970007A0080917A0086FDFCCF609178008091AA
:10098000790070E0782B072E000C880B990B0E94E1
:10099000F706609336017093370180933801909386
:1009A0003901809170008E7F8093700020E030E0EC
:1009B00040E85FE460913601709137018091380121
:1009C000909139010E94AC0723E331E245EF56E4F0
:1009D0000E9454060E94C606609332017093330150
:1009E00080933401909335018091700081608093F1
:1009F0007000C0903601D0903701E0903801F0903F
:100A00003901A7019601C701B6010E941908882380
:100A100019F08EE191E01AC046015701E894B7F849
:100A20002FEF3FEF4FE75FE7C501B4010E941908C0
:100A300081110FC02FEF3FEF4FE75FE7C501B40112
:100A40000E944F0618162CF482E291E00E942D02BB
:100A500076C02FEF3FEF4FE75FE4C701B6010E947A
:100A6000A70718161CF486E291E0F0CF2FEF3FEFB6
:100A70004FE75FECC701B6010E944F0687FDF3CF39
:100A800020E030E0A901C701B6010E944F0687FFB0
:100A900009C06DE284E491E00E94B401F7FAF09499
:100AA000F7F8F0942AE037ED43EA5BE3C701B601BB
:100AB0000E94E3054B015C010E94C6066B017C01AC
:100AC0000E94F5069B01AC01C501B4010E94E2053C
:100AD0004B015C014AE0C701B6010E943F026EE291
:100AE00084E491E00E94B40120E030E040E251E46F
:100AF000C501B4010E94AC074B015C010E94C6060F
:100B00006B01E12CF12C4AE0C701B6010E943F02C3
:100B1000C701B6010E94F5069B01AC01C501B401F5
:100B20000E94E20520E030E040E251E40E94AC0780
:100B30000E94C60680E090E04AE00E943F028AE2FE
:100B400091E00E942D0260913201709133018091F9
:100B50003401909135014AE00E943F028BE191E01F
:100B60000E942D020E942302F6CEE4E4F1E01382FB
:100B7000128288EE93E0A0E0B0E084839583A683A0
:100B8000B78384E091E09183808385EC90E0958742
:100B9000848784EC90E09787868780EC90E0918B47
:100BA000808B81EC90E0938B828B82EC90E0958B34
:100BB000848B86EC90E0978B868B118E128E138E31
:100BC000148E08955058BB27AA270E94FA050C944A
:100BD0006D070E945F0738F00E94660720F039F425
:100BE0009F3F19F426F40C945C070EF4E095E7FBA4
:100BF0000C945607E92F0E947E0758F3BA17620734
:100C000073078407950720F079F4A6F50C94A007E4
:100C10000EF4E0950B2EBA2FA02D0B01B901900117
:100C20000C01CA01A0011124FF27591B99F0593F5B
:100C300050F4503E68F11A16F040A22F232F342FA3
:100C40004427585FF3CF469537952795A795F040F1
:100C50005395C9F77EF41F16BA0B620B730B840B06
:100C6000BAF09150A1F0FF0FBB1F661F771F881FBE
:100C7000C2F70EC0BA0F621F731F841F48F4879516
:100C800077956795B795F7959E3F08F0B0CF939508
:100C9000880F08F09927EE0F9795879508950E9481
:100CA000320708F481E008950E9468060C946D07ED
:100CB0000E94660758F00E945F0740F029F45F3FEA
:100CC00029F00C94560751110C94A1070C945C0761
:100CD0000E947E0768F39923B1F3552391F3951B86
:100CE000550BBB27AA2762177307840738F09F5F4D
:100CF0005F4F220F331F441FAA1FA9F335D00E2EBA
:100D00003AF0E0E832D091505040E695001CCAF726
:100D10002BD0FE2F29D0660F771F881FBB1F2617E9
:100D200037074807AB07B0E809F0BB0B802DBF01C0
:100D3000FF2793585F4F3AF09E3F510578F00C948F
:100D400056070C94A1075F3FE4F3983ED4F38695D1
:100D500077956795B795F7959F5FC9F7880F911DB0
:100D60009695879597F90895E1E0660F771F881F9C
:100D7000BB1F621773078407BA0720F0621B730B4F
:100D8000840BBA0BEE1F88F7E09508950E94860742
:100D900088F09F5798F0B92F9927B751B0F0E1F03C
:100DA000660F771F881F991F1AF0BA95C9F714C0EC
:100DB000B13091F00E94A007B1E008950C94A00713
:100DC000672F782F8827B85F39F0B93FCCF3869525
:100DD00077956795B395D9F73EF490958095709582
:100DE00061957F4F8F4F9F4F0895E89409C097FBFF
:100DF0003EF490958095709561957F4F8F4F9F4FF2
:100E00009923A9F0F92F96E9BB279395F695879535
:100E100077956795B795F111F8CFFAF4BB0F11F4F8
:100E200060FF1BC06F5F7F4F8F4F9F4F16C088239F
:100E300011F096E911C0772321F09EE8872F762FD5
:100E400005C0662371F096E8862F70E060E02AF016
:100E50009A95660F771F881FDAF7880F9695879502
:100E600097F90895990F0008550FAA0BE0E8FEEFD7
:100E700016161706E807F907C0F012161306E4075E
:100E8000F50798F0621B730B840B950B39F40A2657
:100E900061F0232B242B252B21F408950A2609F435
:100EA000A140A6958FEF811D811D089597F99F6739
:100EB00080E870E060E008959FEF80EC08950024E2
:100EC0000A941616170618060906089500240A94AF
:100ED00012161306140605060895092E0394000C35
:100EE00011F4882352F0BB0F40F4BF2B11F460FFC4
:100EF00004C06F5F7F4F8F4F9F4F089557FD9058ED
:100F0000440F551F59F05F3F71F04795880F97FBCD
:100F1000991F61F09F3F79F0879508951216130687
:100F20001406551FF2CF4695F1DF08C016161706B6
:100F30001806991FF1CF86957105610508940895EB
:100F4000E894BB2766277727CB0197F908950E947D
:100F5000320708F48FEF08950E94BF070C946D07C5
:100F60000E945F0738F00E94660720F0952311F079
:100F70000C9456070C945C0711240C94A1070E9452
:100F80007E0770F3959FC1F3950F50E0551F629F48
:100F9000F001729FBB27F00DB11D639FAA27F00DD2
:100FA000B11DAA1F649F6627B00DA11D661F829FF9
:100FB0002227B00DA11D621F739FB00DA11D621FDE
:100FC000839FA00D611D221F749F3327A00D611DFB
:100FD000231F849F600D211D822F762F6A2F1124DD
:100FE0009F5750409AF0F1F088234AF0EE0FFF1F10
:100FF000BB1F661F771F881F91505040A9F79E3F67
:10100000510580F00C9456070C94A1075F3FE4F360
:10101000983ED4F3869577956795B795F795E795BC
:101020009F5FC1F7FE2B880F911D9695879597F9C5
:1010300008950E943207880B990B0895A1E21A2E99
:10104000AA1BBB1BFD010DC0AA1FBB1FEE1FFF1F6C
:10105000A217B307E407F50720F0A21BB30BE40BBC
:10106000F50B661F771F881F991F1A9469F7609503
:101070007095809590959B01AC01BD01CF010895BD
:10108000EE0FFF1F0590F491E02D099481E090E0B0
:0A109000F8940C944B08F894FFCF7D
:10109A0000000000B4011D014B0101027C015A014C
:1010AA006E014444532054657374000D0A006E6146
:0C10BA006E00696E66006F766600200014
:00000001FF
